:020000040800F2
:1000000000040020C1020008D9010008D90100083D
:10001000D9010008D9010008D9010008000000003A
:10002000000000000000000000000000D9010008EE
:10003000D901000800000000D9010008F5010008FE
:10004000D9010008D9010008D9010008D901000828
:10005000D9010008D9010008D9010008D901000818
:10006000D9010008D9010008D9010008D901000808
:10007000D9010008D9010008D9010008D9010008F8
:10008000D901000800000000D9010008D9010008CA
:10009000D9010008D9010008D9010008D9010008D8
:1000A000D9010008D9010008D9010008D9010008C8
:1000B000D9010008D9010008D9010008D9010008B8
:1000C000D9010008D9010008D9010008D9010008A8
:1000D000D9010008D9010008D9010008D901000898
:1000E000D9010008D9010008D9010008D901000888
:1000F000D9010008D9010008D9010008000000005A
:1001000000000000D901000800000000D90100082B
:10011000D901000800000000D9010008D901000839
:10012000D9010008D9010008D9010008D901000847
:10013000D90100080000000000000000D9010008FB
:10014000D9010008D90100080000000000000000EB
:10015000000000000000000000000000000000009F
:10016000000000000000000000000000D9010008AD
:10017000D90100080000000000000000000000009D
:1001800000000000D901000800000000000000008D
:10019000000000000000000000000000000000005F
:1001A0000000000000000000D9010008D90100088B
:1001B000D9010008D9010008D90100080000000099
:1001C00000000000D901000800000000000000004D
:0801D000D9010008D901000863
:1001D80000BEFDE700F04AF833484FF00001C0F8D0
:1001E80000103249C0F8011030BFFDE700B53048B3
:1001F800016811F4803F01D000F003F85DF804EBCA
:10020800704730B5294C2B4D4FF0904081694FF025
:10021800040282614FF0904081694FF008028261C8
:100228004FF0904081694FF04002826114F8013B21
:1002380000F032F84FF0904041694FF090408169EA
:100248004FF4802282614FF0904081694FF4002280
:1002580082614FF0904081694FF480028261237877
:1002680000F01AF8AC42CFD3BDE8304000B54FF0EB
:100278009040016821F0300141F0100101600168EF
:1002880021F0C00141F040010160016821F44051B2
:1002980041F48051016000BD0548016811F4803FB8
:1002A800FAD0013BF8D870470C0400200004002065
:1002B80010E000E00A04002000F004F800F047F81D
:1002C800FFF788FF2748016841F480310160016821
:1002D80011F4003FFBD0C16821F0030141F0030194
:1002E80021F0F00141F4206141F0807121F0C061FA
:1002F800C160016841F080710160016811F0007F00
:10030800FBD0816821F0F00141F0F00121F00301F8
:1003180041F00301816081684FEA910101F0030116
:100328000329F8D11048416801F07F4141F4B03108
:100338004160816801F07F418160016841F00701F7
:1003480001600848C16C41F00101C1647047074869
:100358000749084A03E052F8043B40F8043B884246
:10036800F9D370470010024010E000E000040020BC
:080378001004002080030008BE
:100380000101010101050105010500000000000057
:04000005080002C12C
:00000001FF
