:020000040800F2
:1000000000800020490600089906000899060008AB
:1000100099060008990600089906000800000000EB
:100020000000000000000000000000009906000829
:10003000990600080000000099060008E502000883
:100040009906000899060008990600089906000814
:100050009906000899060008990600089906000804
:1000600099060008990600089906000899060008F4
:1000700099060008990600089906000899060008E4
:10008000990600080000000099060008990600087B
:1000900099060008990600089906000899060008C4
:1000A00099060008990600089906000899060008B4
:1000B00099060008990600089906000899060008A4
:1000C0009906000899060008990600089906000894
:1000D0009906000899060008990600089906000884
:1000E0009906000899060008990600089906000874
:1000F000990600089906000899060008000000000B
:1001000000000000990600080000000099060008A1
:10011000990600080000000039060008990600084A
:100120009906000899060008990600089906000833
:100130009906000800000000000000009906000871
:100140009906000899060008000000000000000061
:10015000000000000000000000000000000000009F
:1001600000000000000000000000000099060008E8
:1001700099060008000000000000000000000000D8
:1001800000000000990600080000000000000000C8
:10019000000000000000000000000000000000005F
:1001A0000000000000000000990600089906000801
:1001B000990600089906000899060008000000004A
:1001C0000000000099060008000000000000000088
:0801D0009906000899060008D9
:1001D8000348044B834202D0034B03B118477047CE
:1001E8000800002008000020000000000548064B19
:1001F8001B1AD90F01EBA301491002D0034B03B11D
:100208001847704708000020080000200000000080
:1002180010B5064C237843B9FFF7DAFF044B13B146
:100228000448AFF300800123237010BD08000020AC
:1002380000000000BC07000808B5054B1BB10549C4
:100248000548AFF30080BDE80840FFF7CFBF00BF07
:10025800000000000C000020BC07000882B000234A
:10026800019302E0019B01330193019B034A9342EE
:10027800F8DD00BF00BF02B0704700BF9F860100D5
:1002880008B5144B1B68134A43F001031360FFF7CA
:10029800E5FF4FF090431B684FF0904223F443531F
:1002A80023F0300313604FF090431B684FF09042E7
:1002B80043F4825343F010031360FFF7CFFF064B5C
:1002C8004C221A60FFF7CAFF034B4FF498021A60DA
:1002D80000BFF2E74C10024018000048034B1B68AF
:1002E8000133024A136000BF704700BF240000209A
:1002F80000BF704782B0019000BF02B0704782B063
:10030800019000BF02B0704782B0019000BF02B0F8
:10031800704782B0019000BF02B0704782B0019070
:1003280000BF02B0704782B0019000BF02B07047B2
:1003380082B0019000BF02B0704700B585B001904F
:10034800019B1B68DB680393019B1B681B69029375
:10035800029B03F00203002B20D0039B03F002034F
:10036800002B1BD0019B1B686FF002021A61019BD6
:1003780001221A77019B1B689B6903F00303002B7A
:1003880003D0019800F02CF905E0019800F023F95A
:10039800019800F02AF9019B00221A77029B03F0CA
:1003A8000403002B20D0039B03F00403002B1BD075
:1003B800019B1B686FF004021A61019B02221A77E5
:1003C800019B1B689B6903F44073002B03D00198C1
:1003D80000F006F905E0019800F0FDF8019800F03A
:1003E80004F9019B00221A77029B03F00803002BF3
:1003F80020D0039B03F00803002B1BD0019B1B6834
:100408006FF008021A61019B04221A77019B1B688E
:10041800DB6903F00303002B03D0019800F0E0F838
:1004280005E0019800F0D7F8019800F0DEF8019B8C
:1004380000221A77029B03F01003002B20D0039BA5
:1004480003F01003002B1BD0019B1B686FF01002F8
:100458001A61019B08221A77019B1B68DB6903F468
:100468004073002B03D0019800F0BAF805E001981A
:1004780000F0B1F8019800F0B8F8019B00221A7753
:10048800029B03F00103002B0CD0039B03F0010334
:10049800002B07D0019B1B686FF001021A610198BD
:1004A80000F0BCF8029B03F08003002B04D1029BF0
:1004B80003F40053002B0CD0039B03F08003002BA4
:1004C80007D0019B1B686FF402521A610198FFF76D
:1004D80016FF029B03F48073002B0CD0039B03F0E0
:1004E8008003002B07D0019B1B686FF480721A6190
:1004F8000198FFF709FF029B03F04003002B0CD083
:10050800039B03F04003002B07D0019B1B686FF08F
:1005180040021A61019800F06DF8029B03F0200375
:10052800002B0CD0039B03F02003002B07D0019B6A
:100538001B686FF020021A610198FFF7DBFE029B2F
:1005480003F48013002B0CD0039B03F48013002BBF
:1005580007D0019B1B686FF480121A610198FFF79E
:10056800D8FE029B03F40013002B0CD0039B03F46A
:100578000013002B07D0019B1B686FF400121A614F
:100588000198FFF7CBFE029B03F48003002B0CD0ED
:10059800039B03F48003002B07D0019B1B686FF4B7
:1005A80080021A610198FFF7BEFE029B03F4000364
:1005B800002B0CD0039B03F40003002B07D0019BF6
:1005C8001B686FF400021A610198FFF7B1FE00BFC3
:1005D80005B05DF804FB82B0019000BF02B070471F
:1005E80082B0019000BF02B0704782B0019000BF96
:1005F80002B0704782B0019000BF02B0704700009F
:10060800044B1A68044B1B681344024A136000BF6A
:10061800704700BF280000200000002000B583B00C
:100628000190FFF7EDFF00BF03B05DF804FB000089
:1006380008B50248FFF781FE00BF08BD2C00002066
:100648000D488546FFF754FE0C480D490D4A002316
:1006580002E0D458C4500433C4188C42F9D30A4A6F
:100668000A4C002301E013600432A242FBD300F0DD
:1006780021F8FFF705FEFEE70080002000000020BB
:1006880008000020E00700080800002010020020F1
:10069800FEE70000024B13B1024800F005B87047AE
:1006A800000000000D070008002301461A461846FE
:1006B80000F040B870B50F4B0F4DAB42A3EB0506E9
:1006C80007D0B610002455F8043B01349847A642D9
:1006D800F9D800F06FF8094D094B5E1BAB424FEAA1
:1006E800A60606D0002455F8043B01349847A642D4
:1006F800F9D870BDD4070008D4070008D40700084B
:10070800DC07000838B5074D074C2C1BA41005D092
:10071800013C55F8043D9847002CF9D1BDE8384014
:1007280000F04EB8E0070008DC070008704700BF7B
:10073800704700BF2DE9F8431B4D064628689846C8
:100748000F469146FFF7F2FF184B1C681CB3286848
:1007580065681F2D22DC4EB96B1C0235636044F8B6
:100768002570FFF7E5FF0020BDE8F88304EB85015D
:100778000123C1F88890D4F88821AB401A43022E8F
:10078800C4F88821C1F80881E6D1D4F88C211A432D
:10079800C4F88C21E0E7064C1C60D8E7FFF7C8FFD7
:1007A8004FF0FF30E0E700BF040000207800002091
:1007B80080000020F8B500BFF8BC08BC9E46704712
:0C07C800F8B500BFF8BC08BC9E467047A6
:0807D4009D0600084102000827
:0407DC0019020008F6
:0807E000010000007C00002074
:0400000508000649A0
:00000001FF
